:020000040800F2
:10000000100B0020D5020008FF3D0008A33C0008AB
:10001000FD3D0008D92200085153000800000000EF
:10002000000000000000000000000000954B0008E8
:10003000B129000800000000414B0008974B000860
:10004000EF020008EF020008EF020008EF020008CC
:10005000EF020008EF020008EF020008EF020008BC
:10006000EF020008EF020008EF020008EF020008AC
:10007000EF020008EF020008EF020008EF0200089C
:10008000EF020008EF020008EF020008EF0200088C
:10009000EF020008EF020008EF020008EF0200087C
:1000A000EF020008EF020008EF020008EF0200086C
:1000B000EF020008EF020008EF020008EF0200085C
:1000C000EF020008EF020008EF020008EF0200084C
:1000D000EF02000839530008EF020008EF020008A1
:1000E000EF020008EF020008EF020008EF0200082C
:1000F000EF020008EF020008EF020008EF0200081C
:10010000EF020008EF020008EF020008EF0200080B
:10011000EF020008EF020008EF020008EF020008FB
:10012000EF020008EF020008F5280008EF020008BF
:10013000EF020008EF020008EF020008EF020008DB
:10014000EF020008EF020008EF020008EF020008CB
:10015000EF020008EF02000801290008EF02000882
:10016000EF020008EF020008EF020008EF020008AB
:10017000EF020008EF020008EF0200080000000094
:10018000EF020008EF02000800F002F800F092F819
:100190000AA090E8000C82448344AAF10107DA45E2
:1001A00001D100F087F8AFF2090EBAE80F0013F0A2
:1001B000010F18BFFB1A43F00103184758690000EC
:1001C00078690000103A24BF78C878C1FAD852077D
:1001D00024BF30C830C144BF04680C6070470000C1
:1001E0000023002400250026103A28BF78C1FBD840
:1001F000520728BF30C148BF0B6070476E2900F01E
:100200002C84702900F08B85662906F058836529B7
:1002100006F05583672906F05283612906F0518361
:1002200003681B0A28BF41F08001692900F094810E
:10023000642900F09181752900F08E816F2900F00A
:100240001985782900F05785E92900F0B584E4295B
:1002500000F0B284F52900F0AF84EF2900F0168594
:10026000F82900F056850368DB0928BF41F08001BA
:10027000632900F03684732900F03B84E32901F000
:100280003381F32901F03881002070471FB506F053
:100290000CFB01F087F904000020002105F046FD69
:1002A000401C60600020002105F02AFDE0601FBDB9
:1002B00010B510BD01F048F91146FFF7E7FF05F052
:1002C000FFFB01F01FFA03B4FFF7F2FF03BC01F0DC
:1002D0001FFA00000948804709480047FEE7FEE78B
:1002E000FEE7FEE7FEE7FEE7FEE7FEE7FEE7FEE7E6
:1002F00004480549054A064B70470000354C000884
:100300008901000810050020100B002010070020B4
:100310001007002053EA020C00F069802DE9F04B31
:100320004FF00006002B1FBFB3FA83F503FA05F464
:1003300024FA05F65E4012BF1643B2FA82F502FABD
:1003400005F4C5F120051EBF22FA05FC44EA0C04A1
:10035000203556EA044C4FEA144418BF641C4FF091
:1003600000084FF00009904271EB030C39D30029CB
:1003700019BFB1FA81F701FA07F6B0FA80F700FA6F
:1003800007F6C7F120071EBF20FA07FC46EA0C0655
:100390002037B6FBF4FCA7EB0507103F07F01F0B57
:1003A000CBF120060CFA0BFB2CFA06F644BFB34641
:1003B0000026202FA4BF5E464FF0000B5BEA060C20
:1003C00008BF4FF0010B19EB0B09ABFB027C48EBAC
:1003D0000608C01B06FB02CC0BFB03CC71EB0C0127
:1003E000C1E70B46024641464846BDE8F08B13B5CF
:1003F0004FF000004FF00001AFF30080BDE81C405B
:10040000704710B54C1084EA530404D54042C1F142
:10041000000138BF491E1B4204D55242C3F10003FC
:1004200038BF5B1EFFF776FF14F0804F04D04042C8
:10043000C1F1000138BF491E14F0004F04D05242F0
:10044000C3F1000338BF5B1E10BD00007CB51D4624
:1004500016460C00009001D02044401E074B7B4400
:100460002A4669460190304600F011FB05461CB152
:100470000020694600F01EFB28467CBD5D0600009A
:100480000FB47CB50C0009AA009001D02044401E96
:10049000084B7B4469460190089800F0F8FA05463D
:1004A0001CB10020694600F005FB28467CBC5DF8C5
:1004B00014FB00002906000070B504468569006839
:1004C000C10601D5302600E02026C00707D070BD48
:1004D000D4E9012130469047206A401C20626D1EFD
:1004E000F6D570BD70B5044685690078C00707D1A0
:1004F00070BDD4E9012120209047206A401C206271
:100500006D1EF6D570BD70B50C460546012A05D0A6
:100510002878800600D5EA69002302E0012305E07F
:100520005B1C934202D2E05C0028F9D1A869E6186E
:10053000C01AA861286A184428622846FFF7BCFF41
:1005400004E0D5E9012114F8010B9047B442F8D337
:100550002846FFF7C7FF70BD2DE9F041064600248D
:1005600010687529314615A510D000F00BFA002847
:1005700002DA404212A507E031688A0701D511A5C9
:1005800002E0490704D510A5012401E000F003FAB8
:1005900000210A2306F1240707E0B0FBF3F203FB76
:1005A0001200303078541046491C0028F5D12346FB
:1005B0002A463046BDE8F04100F0F6B900000000E0
:1005C0002D0000002B000000200000002DE9F05F4E
:1005D000894604464FF0000ADFF874B1FB44C0F8C6
:1005E00020A02046E1688847002874D0252806D03E
:1005F000D4E901219047206A401C2062F1E70026DF
:100600005F462046E16888472028054607DB312DF4
:1006100005D2781910F8200C08B10643F1E7B007AD
:1006200001D526F00406C4F81CA00027C4F818A0C1
:100630002A2D09D0284605F031FA38B304EB870893
:10064000303DC8F8185019E059F8041B204604EB57
:1006500087029161E1688847012F054618D1E0695A
:10066000002820DA26F020061DE0D8F8180000EB5C
:10067000800005EB40003038C8F818002046E168DB
:100680008847054605F00AFA0028EED1012F0AD066
:100690002E2D08D12046E16888477F1C0546022F91
:1006A00046F02006C4DBA069002803DA404246F089
:1006B0000106A061F00701D026F010066C2D0BD0CA
:1006C000682D09D04C2D39D06A2D35D0742D35D0F8
:1006D0007A2D33D016E038E0E1682F46204688476F
:1006E000B842054609D16C2F26D04FF48060E168EE
:1006F000064320468847054604E06C2F1AD04FF485
:10070000807006430DB3A5F14100192802D82035A9
:1007100046F400664A462946204626604E46FFF7C4
:100720006DFD80B101280BD0F61D26F0070000F109
:10073000080956E74020E4E78020D8E70020D6E704
:1007400006F104094DE7284652E7206ABDE8F09F0C
:1007500006630000401ECAB210F8011F8A4202D090
:100760000029F9D100207047032A40F2308010F0B0
:10077000030C00F0158011F8013BBCF1020F62443C
:1007800098BF11F801CB00F8013B38BF11F8013BCD
:10079000A2F1040298BF00F801CB38BF00F8013B7A
:1007A00011F0030300F02580083AC0F0088051F8EA
:1007B000043B083A51F804CBA0E80810F5E7121DF5
:1007C0005CBF51F8043B40F8043BAFF30080D20714
:1007D00024BF11F8013B11F801CB48BF11F8012BE0
:1007E00024BF00F8013B00F801CB48BF00F8012B03
:1007F000704710B5203AC0F00B80B1E81850203A8D
:10080000A0E81850B1E81850A0E81850BFF4F5AFB0
:100810005FEA027C24BFB1E81850A0E8185044BF3A
:1008200018C918C0BDE810405FEA827C24BF51F8A7
:10083000043B40F8043B08BF7047D20728BF31F89B
:10084000023B48BF11F8012B28BF20F8023B48BFEC
:1008500000F8012B70474FF000020429C0F012800D
:1008600010F0030C00F01B80CCF1040CBCF1020F63
:1008700018BF00F8012BA8BF20F8022BA1EB0C0138
:1008800000F00DB85FEAC17C24BF00F8012B00F82E
:10089000012B48BF00F8012B70474FF0000200B554
:1008A000134694469646203922BFA0E80C50A0E893
:1008B0000C50B1F12001BFF4F7AF090728BFA0E841
:1008C0000C5048BF0CC05DF804EB890028BF40F80D
:1008D000042B08BF704748BF20F8022B11F0804F4F
:1008E00018BF00F8012B70474FF0013C50F8042B63
:1008F00051F8043B9A4221D1A2EB0C03934313EA33
:10090000CC1317D150F8042B51F8043B9A4215D15F
:10091000A2EB0C03934313EACC130BD150F8042B36
:1009200051F8043B9A4209D1A2EB0C03934313EA1A
:10093000CC13DBD04FF00000704700BFD01A01BAD3
:10094000B1FA81F101F0180122FA01F0CB40C1F1B6
:100950002001DBB2C0B2C01A2CFA01F3D11A9143C4
:1009600011EAC311E6D1704770477047704710B560
:1009700000F0E0F9006810BD10B5044600F0DAF9A7
:10098000046010BD09684A0501D540B27047C90529
:10099000FCD500B2704709684A0501D5C0B270475E
:1009A000C905FCD580B270472DE9F0470D46994640
:1009B0009246044600F124080168880604D5E069DF
:1009C00021F01001216000E00120A84201DD471B59
:1009D00000E00027A1697A1902EB0900081AA0615A
:1009E0002078C00602D42046FFF766FD002608E006
:1009F000D4E901211AF806009047206A401C761CB1
:100A000020624E45F4DB2078C0060AD52046FFF769
:100A100053FD06E0D4E9012130209047206A401CB4
:100A20002062381EA7F10107F4DC07E0D4E90121B8
:100A300018F805009047206A401C2062281EA5F186
:100A40000105F3DC2046FFF74DFD2078000602D5B6
:100A50000220BDE8F0870120FBE711680268006A08
:100A6000530501D508700AE0D30501D5088006E0DA
:100A7000130603D5C217C1E9000200E00860012097
:100A80007047000001694A1C02610878704700B590
:100A90008FB0CDE901310021059105497944CDE9B7
:100AA000031011466846FFF791FD0FB000BD00002E
:100AB000E5FFFFFF0A6802F8010B0A607047D1E901
:100AC00000239A4202D2531C0B601070704710B57D
:100AD000436913B1AFF3008001E0FFF714FD01207B
:100AE00010BD127800F124010A7000224A70012220
:100AF000EDE711684FF0FF32E9E700002DE9FF5FF5
:100B000015468A460446DFF8AC80F8440027D8E949
:100B100000103E46CDE9001010E03AF816106A4683
:100B200002A800F0EDFC411C07D02178890603D50E
:100B3000E269391891420DD80744761C2078800666
:100B400002D5E069B84205DDAE42E6DB3AF81600B0
:100B50000028E2D1A069C01BA0612046FFF7ACFCD1
:100B6000D8E90010CDE90010002017E03AF818107D
:100B70006A4602A800F0C4FCB0F1FF3F81460BD0EA
:100B800000250DF1080B05E0D4E901211BF8050053
:100B900090476D1C4D45F7D308F10100B0428046E7
:100BA000E4DB206A384420622046FFF79BFCBDE866
:100BB000FF9F0000525E00002DE9F0418046D21DEB
:100BC00022F007020025D2E90002F52914A612D06E
:100BD000002A06DA0023D0EB030063EB020211A621
:100BE00008E0D8F800108B0701D50FA602E04907EE
:100BF00001D50EA601251146002408F1240704E0C2
:100C000000F09CF830323A55641C50EA0102F7D1EA
:100C10002B46324621464046BDE8F041FFF7C4BEB0
:100C2000000000002D0000002B000000200000004C
:100C300030B4002100F1240408E002F00705D208D6
:100C4000303542EA4372DB086554491C52EA030519
:100C5000F3D10468002310A2250708D504F020046E
:100C60000C4304D0C46901230CA2641EC46130BCCF
:100C7000FFF79ABE10B5044621461068FFF78BFEB9
:100C800002462046BDE810400023D1E7D21D22F0E5
:100C90000701D1E90023CBE700000000300000008D
:100CA000F0B40D460188090502D5214C7C4402E0D0
:100CB0001F4C7C440E34002100F1240608E002F0B1
:100CC0000F071209E75D42EA03721B097754491CBA
:100CD00052EA0307F3D102780023120704D5702DDE
:100CE00006D009B1022311342246F0BCFFF75CBEE6
:100CF00001231034F8E770B504460D46214610680C
:100D0000FFF749FE024629462046BDE87040002311
:100D1000C6E7D21D22F00703D3E90023C0E703682A
:100D2000126843F0200303600823C3610023B7E780
:100D3000B85C000000487047AC04002030B5B0F14A
:100D40000A024FEA900E71F100034EEA817EB0EB89
:100D50000E0061EB91014FEA101E4EEA017E10EB8E
:100D60000E0041EB11114FEA102E4EEA016E10EB0E
:100D70000E0041EB11214FEA104E4EEA014E10EBEE
:100D80000E0041EB1141401841F100014FEAD00043
:100D900040EA41704FEAD10110EB80054FEA81042F
:100DA00044EA907444EB01046D1944EB0404521BB3
:100DB000A3414FF0000348BF0A3200D530BD401CAC
:100DC00041F1000130BD70472DE9FF4F0C461E4632
:100DD0004FF0FF378BB0D2E90001DDF860800A9058
:100DE0008A46C1F30A5505B93D46002108464FF031
:100DF0000000BAF1000F00F4400005DA00EB8000BB
:100E00004FF4400101EA50004FEA9059B9F1010F47
:100E100000DDB9460A9850EA4A000ED044F6105058
:100E2000A5F2FF3545432F14B8F1000F1ED07542CF
:100E3000291E1EDDC9F100021CE0B8F1010F4FF0C0
:100E4000000001D0302103E0F24305E02154401CB2
:100E5000B042FBDB30460022002121540B99C1F83F
:100E60000880C1E900200FB0BDE8F08FBD1B6D1CEC
:100E7000DEE74A4600DA694206A800F0D7FB06AB77
:100E800093E8070003AB83E8070050460A9900F097
:100E900046FC8DE80700A0F500501F38009003982D
:100EA000002D09DD42F21F014A46084403A90390C0
:100EB000684600F0A5FE08E0A0F500504A461F383D
:100EC00003A90390684600F0AFFE8DE80700000418
:100ED000000C03D04FF0FF30410800E01046B8F19D
:100EE000000F03D00022009215461EE0751E05D4A7
:100EF000FFF724FF303262556D1EF9D5B34601224B
:100F0000084302D000227F1C04E02078302801D161
:100F100000227F1E002A099786D01DE0112D07DAD6
:100F2000FFF70CFF303262556D1C50EA0102F5D11B
:100F3000084302D00098C8B10EE00021681E05E009
:100F4000235C625C63542254401E491C8142F7DBDF
:100F5000AB46A81B401E0990002004F80B000B981C
:100F6000099AC0F80880C0E9002B7CE711264FF0F1
:100F7000000859E72DE9F04F88460446D21D22F0BB
:100F8000070191B0D1E90001CDE90A0104F0E1F9CE
:100F900002460B98C00F01D02D2007E02068810782
:100FA00001D52B2002E0202101EAC000032A09908C
:100FB00001D0072A05DB03464146204600F0F6FA39
:100FC00009E12078800601D5E06900E00620B8F14B
:100FD000650F814606D0B8F1660F18D0B8F1670FDB
:100FE00070D131E00020B9F1110F009001DB112325
:100FF00001E009F101030AAA01A90CA8FFF7E4FE28
:10100000DDE90C70002609F10105834647E0012067
:101010004B4600904FF000470AAA01A90CA8FFF721
:10102000D3FEDDE90DB00C995D46002610B909F13B
:1010300001000D18B9EB050003D4C0F1FF3609F12A
:101040000105A5EB09002BE0B9F1010F01DA4FF022
:1010500001090020B9F1110F0090484601DD11236C
:1010600000E003460AAA01A90CA8FFF7ADFEDDE9DE
:101070000C704D4600268346207800070AD4AB4505
:1010800000DA5D4601A8012D04DD411911F8011CAB
:10109000302907D04F4502DA17F1040F04DA012096
:1010A00082460FE06D1EEEE7002F02DCED1B3E4492
:1010B00003E0781CA84200DD7D1CB81B00F1010A8A
:1010C0004FF000472078000703D4AA4501DB4FF01A
:1010D000FF3A0021B7F1004F0DF143088DF843109E
:1010E00022D002202B23002F01DA7F422D234FF044
:1010F0000A0C011EA0F1010000DC47B197FBFCF1D6
:101100000CFB11720F46303208F8012DF1E7A8F1FF
:10111000010003702188090501D5452100E0652102
:10112000A0F1010800F8011C09980FA9A1EB08071C
:10113000FF1D00B10120411901EBEA70A16938449B
:10114000081A401EA0612078C00602D42046FFF78E
:10115000B3F9099828B1D4E901219047206A401CCD
:1011600020622078C00622D52046FFF7A5F91EE0B0
:10117000002E04DBB34502DD01A8805D00E03020D5
:10118000D4E901219047206A401C2062761CAAF114
:1011900001005FEA000A0AD100F004FAC0680168A1
:1011A000405CD4E901219047206A401C2062281E3F
:1011B000A5F10105DCDC07E0D4E9012118F8010BF9
:1011C0009047206A401C2062381EA7F10107F3DC1B
:1011D0002046FFF787F9022011B045E62DE9F04FD0
:1011E00004460D46D21D22F0070089B0D0E90092D6
:1011F00048461746394604F0ACF80246F80F01D0CD
:101200002D2307E02068810701D52B2302E0202150
:1012100001EAC0038DF820300BB1012000E000206E
:10122000032A824601D0072A04DB2946204600F023
:10123000BDF93BE12078800601D40D2500E0E56989
:10124000C7F30A560D2D49DA00214FEA175B08460D
:101250004FF00000002F00F4400007DA00EB8000A0
:1012600000EBD0714FF4400000EA610081150129C4
:1012700001DD4FF0FF3100224FEA850CBCF1180F61
:1012800006D31346ACF118004FF08052C24003E081
:101290004FF4801323FA0CF30CF10C0CBCF1200F6B
:1012A00004D3ACF1200C09FA0CF001E007FA0CF0C1
:1012B00000294FF0004801DD18B90FE00ED140457C
:1012C0000CD319EB02095F4121B9404502D19F437C
:1012D00029EA0209BBEB175F00D0761C20880005C5
:1012E00002D57A48784402E078487844193808AA48
:1012F000302302F80A30037C0AF10101002E0AF1C2
:10130000020A53546A4602DC4FF0300101E04FF00C
:1013100031014FF001088DF8001002D0A6F2FF361F
:1013200003E059EA470100D0694E002D02DC217824
:10133000090704D54FF002082E218DF80110C4468C
:1013400000210BE0C7F303433F01C35C491C6D1E42
:1013500002F80830052908F1010801DA002DF1DC56
:1013600000210CE000EB1973491C1B786D1E082945
:1013700002F808304FEA091908F1010801DA002DD6
:10138000F0DC2178890602D514E0A8F10108E045D7
:1013900005DD02EB080111F8011C3029F5D0B8F188
:1013A000000F07DD02EB080111F8011C2E2901D105
:1013B000A8F10108002D05DD3E2102F808106D1E80
:1013C00008F10108407C002E02F8080008F101082D
:1013D00004DA2D20764202F8080002E02B2002F801
:1013E00008000A214FF47A739E4208F101080ADBD3
:1013F00096FBF3F000F1300703FB106602F808706B
:1014000008F1010801E0642E0BDB642796FBF7F07E
:1014100000F1300307FB106602F8083008F10108FC
:1014200001E00A2E06DB96FBF1F0303002F80800EE
:1014300008F1010896FBF1F001FB1060303002F872
:101440000800A16908F1010808EB050202EB0A0097
:10145000081AA0612078C00602D42046FFF72CF8B5
:10146000216A08AE01EB0A00206204E0D4E9012100
:1014700016F8010B9047BAF1010AF7D22078C0069E
:1014800002D52046FFF718F86E4609E016F8010B62
:101490003E280FD0D4E901219047206A401C2062E9
:1014A000B8F10108F2D22046FFF71CF809B002207B
:1014B000BDE8F08F206A2844206203E0D4E90121CE
:1014C000302090476D1EEBD3F8E70000C3560000B4
:1014D00002FCFFFF10B5436913B1AFF3008001E0D8
:1014E000FFF70CFB012010BD128800F1240182845B
:1014F0000022C2840122EDE711684FF0FF32E9E7D4
:1015000070B516460C46054600F044F8036893F89B
:101510000101012806D0FF2C0FD8185D68B1012009
:101520002C7070BDD3F8070132462146034428468B
:10153000BDE8704003F2071318474FF0FF3070BD4D
:1015400000487047AC0400207546FFF7F9FFAE462F
:1015500005006946534620F00700854618B020B5BF
:10156000FEF7C6FEBDE820404FF000064FF0000732
:101570004FF000084FF0000B21F00701AC46ACE83B
:10158000C009ACE8C009ACE8C009ACE8C0098D46A8
:101590007047000010B500F005F8001D10BD00BF39
:1015A0008D47000000487047CC0400202DE9F04131
:1015B0001F46044603260168072A01F4006004DB85
:1015C00008B116A505E016A503E008B115A500E0D1
:1015D00015A521F010002060A069C01EA0610FB108
:1015E000401EA0612046FEF767FF4FB1D4E90121FC
:1015F00038469047206A401C2062C01C206206E0EA
:10160000206AFAE7D4E9012115F8010B9047761E0C
:10161000F8D22046FEF766FFBDE8F0814E414E004D
:101620006E616E00494E4600696E66002DE9F04716
:10163000814616468AB0324878440DC88DE80D00C0
:101640002F487844801C03AC0DC884E80D0041F697
:101650009B303722014491FBF2F0A0F1800502FBA0
:1016600010141B3C02D56442012000E00020DFF88A
:1016700090A080460027FA44AAF1BA0A0DE0E007DC
:1016800009D03246684607EB47010AEB810100F0BA
:10169000CBFA8DE8070064107F1C002CEFD1184FA7
:1016A0007F44A83F18E0E80714D007EB04100DF1C1
:1016B000180A90E80E008AE80E00C068F04201D1D6
:1016C00098190890324606A903A800F0ADFA03ABBA
:1016D00083E807006D10641C002DE4D13246694692
:1016E000B8F1000F03A802D000F08AFA01E000F080
:1016F0009BFAC9E90001C9F808200AB0BDE8F087E3
:10170000005400000446AFF300802046FEF7DBFDE6
:1017100001491820ABBEFEE72600020070475FEAD1
:10172000400C08BF91F0000F4FEA8C234FEAC12212
:1017300043EA51514FEA1C5018BF00F5F0404FEA00
:10174000300018BF41F000415FEA6C5C00F0298076
:10175000BCF1FF3F08BF40F080407047130C06BF4C
:1017600012044FF0100C4FF0000C130E04BF1202C5
:101770000CF1080C130F04BF12010CF1040C930FB1
:1017800004BF92000CF1020CD30F04BF52000CF105
:10179000010C11464FF00002A0F11F00A0EB0C005D
:1017A000704711F0004F08BF704731F000413FF41F
:1017B000D5AF0B0C06BF09044FF0100C4FF0000C16
:1017C0000B0E04BF09020CF1080C0B0F04BF09013A
:1017D0000CF1040C8B0F04BF89000CF1020CCB0F31
:1017E00004BF49000CF1010CCCF12003A0EB0C006C
:1017F00022FA03F302FA0CF241EA030100F10100BC
:10180000704720F07F4C80EA030023F07F47ACEB69
:10181000070303F57C5300F0004003F1FF032DE9BB
:1018200080494FEA154B09B44FEA144325EA0B4EA1
:1018300024EA03480FF2042606EB132749083E78F2
:101840005FEA320203FB0667C7F5000707FB06F6EF
:101850004FEA54374FEAD64606F1020607FB066CFC
:10186000CCF1005C4FEA1C472CEA074C07FB06F45E
:101870000CFB06F504EB15464FEA961634BF002024
:101880004FF000404FEAD13706FB07FC4FEA1C4CF3
:101890000CFB0BF7D21B03FB0CF761EB07010CFBF6
:1018A0000EF7B0EB074072EB17420CFB08F734BFA2
:1018B000A2EB0742B2EB074261EB17414FEA0C443F
:1018C0004FEA910706FB07FC4FEA1C4C0CFB0BF799
:1018D000B0EBC74072EB573203FB0CF734BFA2EBFF
:1018E000C742B2EBC74261EB57310CFB0EF7B0EBCE
:1018F000C70072EB57720CFB08F734BFA2EBC702AC
:10190000B2EBC70261EB5771039F4FEA816141EA75
:10191000921104EBCC044FEAD1374FEA826206FB06
:1019200007FC42EA90124FEA80604FEA1C4C0CFB25
:101930000BF7D21B03FB0CF761EB07010CFB0EF757
:10194000B0EB074072EB17420CFB08F734BFA2EB79
:101950000742B2EB074261EB17414FEA8C554FEA61
:10196000910704EB9C2406FB07FC4FEA1C4C0CFB84
:101970000BF7B0EBC74072EB573203FB0CF734BFE9
:10198000A2EBC742B2EBC74261EB57310CFB0EF73B
:10199000B0EBC70072EB57720CFB08F734BFA2EB39
:1019A000C702B2EBC70261EB577115EB4C254FEA4A
:1019B000816141EA92114FEA82624FEAD13742EAED
:1019C000901206FB07FC44F100044FEA80604FEAE6
:1019D0001C4C0CFB0BF7D21B03FB0CF761EB070154
:1019E0000CFB0EF7B0EB074072EB17420CFB08F74D
:1019F00034BFA2EB0742B2EB074261EB174115EB94
:101A00001C154FEA813141EA92414FEA823242EAA3
:101A100090424FEA80304FEA0C7644F1000448EAE5
:101A200003434EEA0B484FF0000EB2EB080C71EB8B
:101A3000030724BF624639464EEB0E0E4FF0000BF3
:101A40000018524149414BEB0B0BB2EB080C71EB08
:101A500003077BF1000B24BF624639464EEB0E0EA6
:101A60004FF0000B0018524149414BEB0B0BB2EB0E
:101A7000080C71EB03077BF1000B24BF624639466B
:101A80004EEB0E0E51EA020718BF46F0010616EBA8
:101A90000E7655F1000254F1000103D5BDE889012D
:101AA000BDE80088BDE88901B619BDE8004852418B
:101AB00041EB0101A3F10103704780807F7E7D7CB3
:101AC0007B7A7978777676757473727171706F6ED0
:101AD0006E6D6C6C6B6A6A6968686766666564647B
:101AE000636362616160605F5F5E5E5D5D5C5C5B05
:101AF0005B5A5A5959585857575656555555545474
:101B0000535352525251515050504F4F4F4E4E4DD1
:101B10004D4D4C4C4C4B4B4B4A4A4A49494948481D
:101B2000484747474746464645454544444444435D
:101B300043434342424242414141002B26D4770075
:101B400021D01CB54FEA370703B44FF010004FF017
:101B500010014FF000000FBC0BF1010BBDE810406D
:101B6000BBF1010F08BF5FEA170722BF12F10102A4
:101B700011F101014FF0004143F1000300F000407A
:101B800043EA00007047F9D35708DAE746EA064609
:101B900013F1400F4FEA16461FDD13F1200FDFBF90
:101BA00016430A46002120335B42C8D0C3F1200708
:101BB00046EA064602FA07F74FEA164646EA0706DD
:101BC000C3F1200722FA03F201FA07F721FA03F121
:101BD0004FF0000342EA0702B1E746EA020646EA8E
:101BE00006464FEA164646EA0106BCBF46EA0646E6
:101BF000360C4FF000034FF000024FF000019EE75B
:101C00002DE9C048934630B491E8380007C831EA5E
:101C1000400C48BF34EA430C03D5FFF7F2FDFFF751
:101C20008CFFF0BCBDE800882DE9C048934630B475
:101C300091E8380007C810F0804F08BF13F0804FBC
:101C400003D100F005F8FFF778FFF0BCBDE800888D
:101C500020F07F4780EA030023F07F4C07EB0C0362
:101C6000A3F57C5300F00040A3F1FE0392F0000FB7
:101C700000F0B38095F0000F00F077802DE9014966
:101C80004FEA11404FEA144621EA004800FB06FCE7
:101C900024EA064708FB06F607FB08F800FB07F7EF
:101CA00018EB06484CEB164C4FEA124B18EB074862
:101CB0004FEA15464CEB174022EA0B4E0BFB06FC95
:101CC00025EA06470EFB06F607FB0EFE0BFB07F7A1
:101CD0001EEB064E4CEB164C4FF000061EEB074E6B
:101CE0004CEB174B18EB0B0840F1000018EB0E0BF8
:101CF00058EB000840F100008F1A4FF000013CBF84
:101D0000C943661B14BFB5EB040C00213CBFC9439B
:101D1000F61B4FEA17444EEA8E0E27EA04454FEAB7
:101D20001C4704FB07622CEA074C05FB07F70CFB7A
:101D300005F604FB0CFC16EB074642EB174216EBCC
:101D40000C4642EB1C421BEB060658EB02024141DB
:101D500046EA9E0601D5BDE80189B619524141EB1C
:101D60000101A3F10103BDE801894FEA14454FEADF
:101D7000114724EA054621EA074C05FB07F406FB58
:101D800007F70CFB06F105FB0CFC11EB074144EBDC
:101D900017444FEA124711EB0C4144EB1C4422EA72
:101DA000074C05FB07F206FB07F70CFB06F605FBE5
:101DB0000CFC16EB074642EB174216EB0C4642EBC7
:101DC0001C456A1854F1000148BF7047B6195241CA
:101DD00041EB0101A3F10103704795F0000F37D0EB
:101DE0004FEA11424FEA144721EA024624EA074C1F
:101DF00002FB07F106FB07F70CFB06F402FB0CFCE9
:101E000014EB074441EB17414FEA154714EB0C4420
:101E100041EB1C4125EA074C02FB07F506FB07F7DF
:101E20000CFB06F602FB0CFC16EB074645EB1745D0
:101E300016EB0C4645EB1C42121951F1000148BF4C
:101E40007047B619524141EB0101A3F101037047FC
:101E50004FEA14454FEA114724EA054621EA074CA8
:101E600005FB07F106FB07F70CFB06F24FF0000637
:101E700005FB0CFC12EB074241EB174112EB0C4245
:101E800051EB1C4148BF7047921841EB0101A3F18F
:101E9000010370472DE9F04105460C46FE2000F095
:101EA00093F9052001F006F80F2000F08DF90A20C3
:101EB00003F0FBFDDFF860800026012705F0070531
:101EC00032461021404601F004F9502000F02CF970
:101ED000032000F029F9304600F026F9384600F0DA
:101EE00023F9284600F020F9204600F01DF90122D0
:101EF0001021404601F0EDF80A2003F0D6FDF02055
:101F000000F062F9054C1021204601F0DDF80028B0
:101F1000F9D1BDE8F0810000000002400008024055
:101F200010B504462DED048BB0EE409AF0EE609AA9
:101F3000072905D2DFE801F00406080A0C0E10009C
:101F400001200AE0022008E0042006E0082004E066
:101F5000102002E0202000E0402004F0BBF99FEDBB
:101F60000F0B53EC102B04F005FA41EC180B204634
:101F700004F099F99FED0B0B53EC102B04F0FAF9D8
:101F800053EC192B04F0F6F953EC182B03F0CAFFAD
:101F9000BDEC048B41EC100B10BD0000000000C034
:101FA000FFFF5F41000000000000004010B5094C39
:101FB00001221021204601F08CF800222021204629
:101FC00001F087F820460122BDE81040802101F091
:101FD00080B800000000024070B5184C184D01E0B8
:101FE000641E27D01021284601F06EF80028F7D192
:101FF000144E00221021304601F06BF8012000F051
:1020000093F80A2003F051FD00F068F8040400F092
:1020100065F844EA002500F061F840EA0504012271
:102020001021304601F055F8200201D544F07F44DC
:10203000204670BD6FF0004070BD0000404B4C006A
:102040000008024000000240F0B50546A1B06FF064
:102050000040022D0DD3E9070BD1202D09D8002611
:102060006C4607460BE000BFFFF7B6FFB84202D14F
:10207000384621B0F0BD44F82600761CB6B2AE4218
:10208000F2D300216B1E15E000206A1A521E0DE0EB
:1020900004EB800C54F82060DCF80470BE4203DDD1
:1020A00044F82070CCF80460401C80B28242EFD823
:1020B000491C89B29942E7D36A0804EB820054F8BC
:1020C000222050F8040C4FF00003C117801841EB98
:1020D000E2714FF00202FEF794F9CAE770B50024EE
:1020E000104E25466006040E01222021304600F0E5
:1020F000F0FF012003F0D9FC4021304600F0E4FF5E
:10210000012801D144F0010400222021304600F0D2
:10211000E0FF012003F0C9FC6D1CEDB2082DE1D3F6
:10212000204670BD0000024070B5114E05460024E7
:10213000280601D5012200E000228021304600F06F
:10214000C8FF01222021304600F0C3FF012003F028
:10215000ACFC6806050E00222021304600F0B9FFD5
:10216000012003F0A2FC641CE4B2082CE0D370BD93
:102170000000024070B50A4600F0F00102F00F00C6
:1021800001430F4C012000F033F80A2003F08DFCCE
:10219000FC2000F019F80A2003F087FC002000F072
:1021A00013F80A2003F081FC064D01E0641E05D0FF
:1021B0001021284600F088FF0028F7D170BD0000EC
:1021C000404B4C000008024070B5084C0546002208
:1021D0001021204600F07DFF2846FFF7A5FF20468E
:1021E000BDE870400122102100F073BF00000240E2
:1021F00070B50C4D0E46044600221021284600F012
:1022000068FF44F05000FFF78FFF0020FFF78CFFBE
:102210003046FFF789FF2846BDE8704001221021B3
:1022200000F057BF0000024000B5D7B002F064FDD7
:1022300000281DD1402140A802F004FE002817D03C
:1022400050A940A800F0F0F908B10DA015E04FF436
:102250008072694650A800F063F828B1012809D0BF
:10226000022809D00AA008E069460EA002F040FE4C
:1022700057B000BD0CA000E011A002F039FEF7E756
:102280004552524F5220464F524D41540D0A0000C4
:102290004552524F5220494E5445524E414C0D0A20
:1022A00000000000257300004552524F5220554E49
:1022B0004B4E4F574E20434F4D4D414E440D0A005B
:1022C0004552524F52204F5554204F462052414EB6
:1022D00047450D0A00000000FEE7000010B5044667
:1022E000B1EE041ADFED0D0A00F065FB64B1012CBC
:1022F00012D110EE100A04F067FA41EC100B022024
:10230000BDE8104000F004BA10EE100A04F05CFAC8
:1023100041EC100B0020F3E710BD000000000000AE
:102320002DE9F0412DED028B86B01546884604005C
:1023300072D0B8F1000FFBD0002DF9D04FA120468C
:10234000FEF7D2FA514ED8B151A12046FEF7CCFA91
:1023500040B352A12046FEF7C7FA41F28937DFEDBC
:10236000518A4FF47A7680B34FA12046FEF7BCFA2B
:10237000002852D0012006B0BDEC028BBDE8F081F0
:10238000A06949F640414A4A0144914248D230602E
:10239000142201A9306800F0BFF8002869D001AB11
:1023A00044A20DE04949A069884239D270601422E4
:1023B00001A9706800F0B0F800285AD001AB44A21F
:1023C00029464046FEF75CF84FE0FFE7A069B842B7
:1023D00026D200EE100A142201A9B8EEC00A80EE3F
:1023E000288ABDEEC80A10EE100A00F095F898B1E0
:1023F0003C4802F029FB18EE100A04F0E5F941EC24
:10240000100B002000F084F9A06937A290FBF6F3CE
:1024100006FB1300009024E02BE0A069B84201D332
:102420000220A8E700EE100A142201A9B8EEC00AA3
:1024300080EE288ABDEEC80A10EE100A00F06CF893
:10244000B8B118EE100A04F0BFF941EC100B0220ED
:1024500000F05EF9A0692AA290FBF6F306FB1300D8
:10246000009029464046FEF70BF8002801DBA84201
:1024700001D303207FE700207DE70000534554543B
:10248000454D5045524154555245000058000020DA
:102490005345544349524355540000005345544456
:1024A0004143300000007A445345544441433200D4
:1024B00031E6020053455454454D50455241545560
:1024C00052453D2573204F4B0D0A000021A1070006
:1024D0005345544349524355543D2573204F4B0DAA
:1024E0000A0000007C000020534554444143303D25
:1024F000256C642E2530336C6456204F4B0D0A003A
:10250000534554444143323D256C642E2530336C91
:102510006456204F4B0D0A002DE9F84316465FEA3A
:10252000010929D046B3C41705464FF47A720CD579
:1025300000200146D5EB000061EB04010023FDF70C
:1025400060FF009203460FA20EE090460023214652
:10255000FDF757FF07464246002328462146FDF770
:1025600050FF00923B460AA231464846FDF788FFDD
:10257000002801DBB04202D30020BDE8F88301202F
:10258000FBE700002D256C642E2530336C640000C1
:10259000256C642E2530336C64000000F0B50023F8
:1025A0001A46012480B179B105786DB12D2D02D084
:1025B0002B2D02D004E04FF0FF3410F8015F1DB165
:1025C000EDB2303D0A2D01D30520F0BD4FF00A0CCD
:1025D000A3FB0C6E02FB0CE2002703FB072273191E
:1025E00042EBE5724FF00046F61A77EB020516DB78
:1025F00010F8015F002DE3D1A3FB040602FB046287
:10260000E51703FB05226FF000440023241A9341D1
:1026100005DB4FF00043C31A72F1FF3201DA0620E6
:10262000F0BD08600020F0BD2DE9F0410F46040028
:1026300010D07FB1207868B13D212046FEF78AF89E
:10264000060009D03D21701CFEF784F830B105204A
:10265000BDE8F0810120FBE70220F9E7351B14D02B
:10266000182D01D30420F3E7207841381A280CD222
:10267000002080460CE0215CA1F14102192A06D914
:102680001132092A03D95F2901D00320E0E7401C59
:10269000A842F0D32A4621463846FEF765F807F8E7
:1026A000058007F11801701CBDE8F041FFF776BF07
:1026B00010B5134C01221103204600F00AFD01223F
:1026C0009102204600F005FD0022E114204600F0B2
:1026D00000FD0A2000F0EEFB022000F09BF8012034
:1026E00000F098F8002000F095F8064800F062F835
:1026F000054800F05FF8BDE81040044800F05AB803
:1027000000100240030020000300300001003800E8
:1027100070B505462DED048BB0EE408AF0EE608A70
:102720009FED1B9B072830D851EC180B9FED1A0B1F
:1027300053EC102B03F0E2FD01D800241EE053EC13
:10274000192B51EC180B03F013FF02D84FF6FF744E
:1027500014E09FED130B51EC180B53EC102B03F00E
:1027600009FE53EC192B03F0DDFB9FED0F1B53EC1F
:10277000112B03F023FB03F069FD84B221462846A8
:1027800000F08CF80A4820F81540BDEC048B70BDB1
:1027900000000000000014400000000000000000E5
:1027A00000000000E0FFEF40000000000000E03FFC
:1027B0009C0200202DE9F047154E05464FF4805944
:1027C00000224946304600F084FC00244FF40068A3
:1027D0003715280201D5012200E00022414630468B
:1027E00000F077FC01223946304600F072FC6D00A3
:1027F00000223946304600F06CFC641CE4B2182C10
:10280000E7D349463046BDE8F047012200F061BCFD
:102810000010024070B5204C4FF48055D8B101280B
:1028200029D0022837D100222946204600F051FC49
:10283000072002F087F9002002F084F9002002F05E
:1028400081F9002002F07EF929462046BDE870405B
:10285000012200F03EBC00222946204600F039FC4F
:10286000082002F06FF9002002F06CF9002002F05D
:1028700069F90120E6E700222946204600F029FCFC
:10288000042002F05FF9002002F05CF9002002F061
:1028900059F9FF20D6E770BD0010024070B500F076
:1028A0000F0040F0300041EA0040114E04014FF4A7
:1028B000805500222946304600F00BFC01F09AFAC0
:1028C000200E02F03FF9C4F3074002F03BF9C4F3D5
:1028D000072002F037F9E0B202F034F9012229466C
:1028E000304600F0F6FBBDE8704001F083BA00000E
:1028F00000100240014800F06BB90000DC0100202C
:10290000014800F065B900003C020020016818236E
:10291000CAB2103AB2FBF3F2054B6FF30901032A76
:102920009B5CC36500D9091D81650846704700009E
:10293000C668000810B5014600208B698A6A4FF00E
:10294000C07453B1B3F5005F15D072B1012A0CD039
:10295000022A0AD0032A09D104E01AB1012A06D0BA
:10296000022A03D1C96AC90100D5012010BDC96A74
:10297000A142FAD010BD002AF7D0012AF2D0022AD3
:10298000F3D0032AF3D010BD30B50468256825F4D0
:1029900080252560046863608368402B036803D04A
:1029A00099600068C26030BD9A600068C16030BD47
:1029B000704772B6FEE7B4EEC10AF1EE10FA02DD1E
:1029C000B0EE410A7047B4EEE00AF1EE10FAF9D227
:1029D000B0EE600A7047000010B5040011D084EC1E
:1029E000030AB0EE610ADFED070A9FED071AC4ED96
:1029F000030AC4ED040AC4ED050AFFF7DCFF84ED09
:102A0000060A10BD0000000000009643002807D011
:102A10009FED040A80ED030A80ED040A80ED050AAB
:102A2000704700000000000070B50D46040064D03F
:102A300070EE600A314AB0EEE00A10EE100A9042E1
:102A400009DA9FED2F0A9FED2F1A60EE800A94EDB0
:102A5000030A40EE010A94ED031A94ED000AF0EE29
:102A6000002A70EEC11A20EE212AF0EE601A94EDD1
:102A7000010A41EE621AD4ED042A20EE200A71EE1A
:102A8000A21AD4ED022A61EEA21AF0EEE02A12EEAA
:102A9000900A904204DD32EE000A30EE210A0FE087
:102AA00012EE900A1849F6EE002A884202DD32EE54
:102AB000000A01E002EE220A30EE210A20EE220A8C
:102AC00084ED050A94ED060AD4ED051A30EE210ACC
:102AD00084ED060A84ED041AC4ED030A9FED0B1A77
:102AE000DFED0B0AFFF767FF84ED060A02F0AAF894
:102AF0002846BDE87040FFF7F1BB70BDCDCC4C3D22
:102B00003333333F9A99993E0AD7A33C000096434A
:102B1000000000002DE9F0410446876D00F0DEFA68
:102B2000064694F835000025022806D0802060650E
:102B300084F834500120BDE8F0812068016821F05C
:102B4000160101602068416921F080014161206C1B
:102B500008B9A06C20B12068016821F0080101606B
:102B60002068016821F0010101600CE000F0B6FA74
:102B7000801B052807D920206065032084F83500D4
:102B800084F83450D7E720680068C007EED194F885
:102B90005C103F208840B860012084F8350084F83C
:102BA00034500020C7E790F83510022903D0802167
:102BB000416501207047052180F8351000680168E3
:102BC00021F00101016000207047406D7047000056
:102BD0002DE9F84304464FF00009CDF80090634812
:102BE0004FF41651A56D0068B0FBF1F72E6894F80C
:102BF0005C10082000FA01F131420FD021680A6808
:102C000052070BD50A6822F004020A6094F85C109F
:102C10008840A860606D40F00100606594F85C1029
:102C20004FF0010808FA01F0304208D021684969E4
:102C3000090604D5A860606D40F00200606594F854
:102C40005C1004208840304208D021680968890758
:102C500004D5A860606D40F00400606594F85C10D5
:102C600010208840304218D021680968090714D51F
:102C7000A86020680168490304D50068000308D5EE
:102C8000A16C07E00168C90503D4016821F00801BF
:102C90000160216C09B12046884794F85C1020201F
:102CA0008840304231D021680968C9062DD5A86016
:102CB00094F8350005282068016806D0490347D5F7
:102CC000006800031DD4616C1CE021F01601016056
:102CD0002068416921F080014161206C08B9A06C35
:102CE00020B12068016821F00801016094F85C10AF
:102CF0003F208840A86084F8358084F83490216DA6
:102D00001FE0E16B09B120468847606D00282BD099
:102D1000606DC00714D0052084F835002068016874
:102D200021F0010101600098401C0090B84203D8D6
:102D300020680068C007F6D184F8358084F83490A4
:102D4000E16C002910D001B02046BDE8F0430847EF
:102D50000168C905D5D4016821F01001016084F82B
:102D6000358084F83490CCE7BDE8F8834C0000202F
:102D70002DE9F041044600F0B1F906465CB10220AD
:102D800084F83500002584F834502068016821F06B
:102D9000010101600DE00120BDE8F08100F09EF925
:102DA000801B052805D920206065032084F83500A4
:102DB000F2E720680068C007F0D122681168204857
:102DC0000140D4E901031843D4E9033633431843DF
:102DD00063691843A3691843E3691843236A1843D6
:102DE0000843616A042903D1D4E90B13194308434A
:102DF000106020684069666A20F0070130460E4383
:102E0000012704280CD1A06A0643E06A40B120469D
:102E1000FFF790FD20B14020606584F83570BAE777
:102E2000206846612046FFF771FD94F85C203F2141
:102E300091408160656584F835700020ACE7000042
:102E40003F8010F02DE9F0410446866D90F8340083
:102E5000002501280DD0012084F8340094F8357045
:102E60000020012F07D084F8340002252846BDE851
:102E7000F0810220FBE7022784F835706065204668
:102E8000FFF782FD94F85C103F208840B060206816
:102E9000016841F016010160206C20B120680168D2
:102EA00041F0080101602068016841F00101016002
:102EB000DCE7000070B5044600F010F90546601C20
:102EC00002D004480078044400F008F9401BA042F6
:102ED000FAD370BD400000202DE9F84FDFF8BCA107
:102EE0000022012503264FF00F090AF1040BAAF175
:102EF000040E00BF0B6805FA02F42340A34270D110
:102F00000F7907F00307012F01D0022F16D1876830
:102F10004FEA420806FA08FC27EA0C07D1F80CC071
:102F20000CFA08FC4CEA070CC0F808C04768A74335
:102F30000C79C4F3001494403C4344600C79E4439E
:102F4000A4070AD0C4684FEA420C06FA0CF7BC4347
:102F50008F6807FA0CF72743C7600C7904F0030465
:102F6000022C12D1D40800EB840CDCF82040570767
:102F7000FF0E09FA07F824EA0804D1F8108008FACD
:102F800007F848EA0408CCF8208004684FEA420CAD
:102F900006FA0CF7BC430F7907F0030707FA0CF7A2
:102FA000274307604C6814F4403F70D03C4C2768BE
:102FB00047F480472760246822F0030704F4804424
:102FC0000094384C07EB040CDCF8084897074FEAEC
:102FD000177809FA08F7BC43334FB84202D10027EB
:102FE00024E054E0314FB84201D101271EE0304FB8
:102FF000B84201D1022719E02E4FB84201D1032770
:1030000014E02D4FB84201D104270FE02B4FB842F6
:1030100001D105270AE02A4FB84201D1062705E071
:10302000284FB84201D1072700E0082707FA08F720
:103030002743CCF80878DAF800405746D1F804C0A6
:103040009C435FEACC2C00D51C433C60DBF800407D
:103050005F46D1F804C09C435FEA8C2C00D51C432A
:103060003C60DEF800407746D1F804C09C435FEA3C
:103070008C3C00D51C433C60084F083F3C68D1F8AD
:1030800004C09C435FEACC3C00D51C433C60521C0E
:10309000102AFFF42FAFBDE8F88F0000083C014074
:1030A0004438024000300140000002400004024069
:1030B00000080240000C02400010024000140240D0
:1030C00000180240001C02400069084000D00120A6
:1030D00070470AB1816170470904FBE701488068C5
:1030E00070470000400000200248816802781144C7
:1030F00081607047400000200B4810B5016841F422
:1031000000710160016841F480610160016841F46F
:1031100080710160032000F06FF80F2000F006F8C6
:1031200000F024F8002010BD003C024070B50D4DA9
:1031300004464FF47A712878B1FBF0F00A49096827
:10314000B1FBF0F000F00CFB48B9102C07D20022C4
:103150002146501E00F030F800206C6070BD012048
:1031600070BD0000400000204C0000200A4808B557
:10317000016841F480410160006800F480400090E3
:103180000548001F016841F080510160006800F0AF
:103190008050009008BD000044380240002809DB40
:1031A00000F01F02012191404009800000F1E02061
:1031B000C0F8001170470000F0B40E4B1B680C46BD
:1031C000C3F30223C3F10705042D00D90425191DFB
:1031D000072901D2002300E0DB1E012606FA05F1D3
:1031E000491E214099409E40761E16403143F0BC56
:1031F00002F0DAB80CED00E0064900F007020868BA
:103200004FF6FF03184040EA0220034A10430860CB
:10321000704700000CED00E00000FA052DE9F047D2
:103220000E46050065D0DFF81481D8F80000F7B22B
:1032300000F00700B04207D288F80070D8F800000C
:1032400000F00700B04254D128683D4C810712D5E8
:10325000400703D5206840F4E0502060287800073C
:1032600003D5206840F4604020602068A96820F001
:10327000F000084320602878C0072DD030496868E6
:103280000839012812D0022813D0032811D0096868
:10329000890700292DDA216821F00301014321600B
:1032A000FFF71CFF814641F2883A0EE00968890366
:1032B000EFE709688901ECE7FFF710FFA0EB0901D0
:1032C000514502D90320BDE8F0872068696800F005
:1032D0000C00B0EB810FEFD1D8F80010404601F0A0
:1032E0000701B14207D90770006800F00700B0423B
:1032F00001D00120E7E72878400705D52068E96874
:1033000020F4E050084320602878000706D52068A4
:10331000296920F4604040EAC100206000F038F8DC
:103320002168084AC1F30311515CC840064908608E
:1033300006480068FFF7FAFE0020C4E7003C0240A0
:1033400008380240CE6800084C00002044000020ED
:103350000448054900680968044AC1F38221515CA8
:10336000C84070474C00002008380240DE68000862
:103370000448054900680968044AC1F34231515CB8
:10338000C84070474C00002008380240DE68000842
:10339000154810B5006810F00C02144813D01449F9
:1033A000042A0FD0082A0ED10F4C241F226823684C
:1033B00002F03F025B0207D52068C0F38810A0FB33
:1033C000010106E0084610BD2168C1F38811A1FB88
:1033D00000010023FCF79EFF2168C1F30141491C55
:1033E0004900B0FBF1F010BD083802400024F400A1
:1033F00040787D012DE9F84F04006ED02078DFF889
:103400004C93C007A9F104054AD009F104000168F2
:10341000C1F38101012908D00068C0F381000228AE
:103420000AD1D9F80000400206D52868800337D5B4
:1034300060680028E1D033E06068B0F5803F10D0CC
:10344000B0F5A02F286810D020F4803028602868BC
:1034500020F4802028606068A8B1FFF73FFE064690
:103460000DE0286840F48030F4E740F480202860C4
:10347000F7E700BFFFF732FE801B642873D8286887
:103480008003F7D50CE0FFF729FE064605E000BFF4
:10349000FFF724FE801B6428F0D828688003F7D447
:1034A0002078DFF8AC8280074FF0000A3ED5A748AD
:1034B000001D016811F00C0F08D00068C0F38100F6
:1034C00002280BD1D9F80000400207D428688007F1
:1034D00016D5E068012800D112E033E1E068B8B108
:1034E0000120C8F80000FFF7F9FD064605E000BF1F
:1034F000FFF7F4FD801B0228C0D828688007F7D5A5
:103500002868216920F0F80040EAC10028600DE039
:10351000C8F800A0FFF7E2FD064604E0FFF7DEFD75
:10352000801B02281FD828688007F7D4207800075E
:1035300022D5864F87486169703771B101210160DA
:10354000FFF7CCFD064604E0FFF7C8FD801B02280C
:1035500009D838688007F7D50EE0C0F800A0FFF75B
:10356000BDFD064605E082E0FFF7B8FD801B02289E
:103570007DD838688007F7D42078400768D5DFF811
:10358000CCB100270BF13C0BDBF80000C0000BD4E2
:10359000DBF8001041F08051CBF80010DBF80000A0
:1035A000012700F0805000906B4E3068C00510D4A9
:1035B000306840F480703060FFF790FD009005E0C7
:1035C000FFF78CFD0099401A022850D83068C005DA
:1035D000F6D55E4EA0686C3601280FD005283068FD
:1035E00010D020F001003060306820F0040030601E
:1035F000A068B8B1FFF772FD00900FE0306840F0AE
:103600000100F4E740F004003060F7E7FFF766FDE3
:103610000099411A41F28830814266D830688007AB
:10362000F4D50EE0FFF75AFD009007E0FFF756FDD6
:103630000099411A41F28830814256D8306880079B
:10364000F4D42FB1DBF8001021F08051CBF800103A
:10365000A069C8B33D49091D0968C1F38101022968
:103660004AD00228504607D0C8F8600000E03CE08D
:10367000FFF734FD04463BE04746C8F86000FFF71B
:103680002DFD064605E000BFFFF728FD801B022840
:103690002BD828688001F7D4D4E907010843A16A30
:1036A0002E4A490802EB0141626A41EA821108434D
:1036B00094F82C1040EA0161C9F800100120386626
:1036C000FFF70CFD044606E03EE000BFFFF706FDF5
:1036D000001B022809D828688001F7D534E000BF14
:1036E000FFF7FCFC001B022802D90320BDE8F88F7D
:1036F00028688001F4D427E00128F7D0D9F8000029
:10370000E26900F4800191421CD1226A00F03F017D
:10371000914217D147F6C071626A0140B1EB821F36
:1037200010D1A26A4FF0FF3300F4403103EB520294
:10373000B1EB024F06D194F82C1000F07060B0EBA2
:10374000016F01D00120D1E70020CFE7043802400B
:1037500000004742800E4742007000400000FFFF1B
:1037600010B5401EB0F1807F01D3012010BD4FF095
:10377000E02460610F21601701F016FE0020A061B7
:1037800007202061002010BD704770B504462068F6
:103790000C3050E8001F21F4907140E80012002A1C
:1037A000F5D12068143050E8001F21F0010140E8F5
:1037B0000012002AF5D1206B012809D120680C30B5
:1037C00050E8001F21F0100140E80012002AF5D156
:1037D000206840694FF00005400615D52068143078
:1037E00050E8001F21F0400140E80012002AF5D106
:1037F000E06B48B10565E06BFFF78CF920B1E06B39
:10380000FFF7E3F9202806D0E585202084F8420060
:103810002563002070BD10206064032070BD01F09E
:1038200073BA0000F8B5016804460868CA684B69B5
:1038300010F00F0F4FF000055AD003F0010602F40C
:103840009077374365D0C10705D0D10503D5616CAA
:1038500041F001016164410705D5D90703D0616CCE
:1038600041F002016164810705D5D90703D0616C7D
:1038700041F004016164010707D502F020013143E2
:1038800003D0616C41F008016164616C00293BD098
:10389000800604D5900602D5204601F02EFC206853
:1038A0004069616CC0F3801001F0080101432046BB
:1038B0002BD001F0EDFB20684069400621D520683F
:1038C000143050E8001F21F0400140E80012002AA7
:1038D000F5D1E06BA8B172490165E06BFFF763F9C0
:1038E000002811D0E06B016D01B0BDE8F040084741
:1038F00083060ED593060CD52046BDE8F84001F0AE
:10390000FCBB2046FFF78BFFF8BDFFF788FF65641F
:10391000F8BD266B2023012E7ED1C6067CD5D606A7
:103920007AD508684868009048694FF0020640065A
:103930004DD5E26B106840684FF480770004000CAE
:103940003AD0A18D814237D9E085D069B8422DD0D7
:1039500020680C3050E8001F21F4807140E800120C
:10396000002AF5D12068143050E8001F21F0010131
:1039700040E80012002AF5D12068143050E8001FFA
:1039800021F0400140E80012002AF5D184F84230CD
:10399000256320680C3050E8001F21F0100140E83A
:1039A0000012002AF5D1E06BFFF7B4F86663A08D32
:1039B000E18D401A81B206E0A18D8142A8D1D06983
:1039C000B842A5D166632046FFF7DEFEF8BDA08DA4
:1039D000E18D401A81B2E08D0028F7D00029F5D0A2
:1039E00020680C3050E8002F22F4907240E8002745
:1039F000002FF5D12068143050E8002F22F001028A
:103A000040E80027002FF5D184F842302563206874
:103A10000C3050E8002F00E006E022F0100240E8F1
:103A20000023002BF3D1CDE705062BD5150629D5AC
:103A300094F841002128C9D1A068B0F5805F01D178
:103A40002069B0B1206A411C216221680078486079
:103A5000E08C401E0004000CE084B7D12068C168EF
:103A600021F08001C1602068C16841F04001C1605F
:103A7000F8BD206A0088C0F308004860206A801CF6
:103A80002062E5E74006F3D55006F1D5CA68204626
:103A900022F04002CA6084F8413000F0FFF8F8BD1F
:103AA000494F000870B5040004D094F84100002587
:103AB00010B106E0012070BD84F84050204600F0AF
:103AC00023F8242084F841002068C16821F40051C3
:103AD000C160204601F072FB2068016921F4904129
:103AE00001612068416921F02A0141612068C168B3
:103AF00041F40051C1606564202084F8410084F8DD
:103B000042006563002070BD2DE9F04186B0064695
:103B100014216846FCF7C1FE3149306888425CD107
:103B200030480025016841F010010160006800F094
:103B3000100005902B481438016841F00101016024
:103B40000068694600F0010005904FF4C0600090E5
:103B50000220CDE9010503200390072004902248AC
:103B6000FFF7BAF9224C21484FF000672060C4E902
:103B700001754FF48068C4E9035880156561C4E994
:103B800006504002C4E908052046FFF7F1F808B1E5
:103B9000FEF70FFFF463A663154C144860347830C9
:103BA000E4E802074020A4E82101800244F8145907
:103BB000A561C4E907500E4865626030FFF7D8F888
:103BC00008B1FEF7F6FEB463002211462520A66375
:103BD000FFF7F2FA2520FFF7E1FA06B0BDE8F08121
:103BE000001001404438024000000240406402409E
:103BF000DC01002090F84230202B01D002207047D9
:103C000021B11AB10023036301F046BB01207047C4
:103C100001F0A2B801F0A0B870B5044690F84100D8
:103C2000202801D0022070BD01B3FAB12162A28424
:103C3000E28400206064212384F84130A56B144B9A
:103C4000EB63A56B134B2B64A56B134BEB64A36B5E
:103C5000186520681346A56B021D2846FFF7F2F889
:103C600030B110206064202084F84100012070BD34
:103C700021686FF0400008602068143050E8001F91
:103C800041F0800140E80012002AF5D1002070BD0B
:103C90004550000887500008574F000801F066B8EB
:103CA0007047FEE70D4808B5016841F480010160E6
:103CB0000068002200F48000009011463A20FFF7CF
:103CC0007BFA3A20FFF76AFA002211464620FFF7F6
:103CD00073FABDE808404620FFF760BA303802406A
:103CE000F0B587B014216846FCF7D7FD2F480024B3
:103CF000016841F080010160016801F080010591D7
:103D0000016841F001010160016801F001010591C4
:103D1000016841F004010160016801F004010591AE
:103D2000016841F0100101600068214E00F01000B0
:103D30000590012210213046FFF7CBF90022A02187
:103D40003046FFF7C6F91B4F00224FF4406138465A
:103D5000FFF7BFF9012211033846FFF7BAF9B02087
:103D600000900125CDE90154694630460394FFF7E0
:103D7000B3F84020CDE90004694630460294FFF7CD
:103D8000ABF81020CDE9000469460B480294FFF718
:103D9000A3F84FF4E050CDE900050320CDE902403F
:103DA00069463846FFF798F807B0F0BD3038024052
:103DB0000000024000100240000802400C4810B50C
:103DC0000A4901604FF4E1314160002181600C2219
:103DD000C160C0E904128161C161FFF763FE002880
:103DE00003D0BDE81040FEF7E4BD10BD0010014057
:103DF000940100200A20401EFDD27047FEE7FEE736
:103E000070B50C462DED0A8B0500B0EE408AF0EE41
:103E1000608A58D09FED379B9FED38AB9FED39CB33
:103E2000ECB39FED3A0B51EC180B53EC102B02F056
:103E300065FA48D951EC180B9FED360B53EC102B5B
:103E400002F096FB3FD951EC180B9FED340B53EC6D
:103E5000102B02F0C3FB41EC1B0B53EC192B51EC64
:103E6000180B02F087FA53EC1B2B02F05BF841ECC5
:103E7000180B53EC1A2B02F041FA24D953EC192BEE
:103E800051EC180B02F04EF841EC100B01F090FBD6
:103E90009FED241B51EC100B53EC112B00E012E0B2
:103EA00002F040F841EC100B9FED201B53EC102B5F
:103EB00051EC110B01F082FF41EC190B53EC1A2B62
:103EC00002F01CFA03D80020BDEC0A8B70BD53EC45
:103ED000192B51EC1C0B02F025F89FED161B53EC2F
:103EE000112B02F087FBC5E9000184ED008B012056
:103EF000EAE70000000000000088C3400000000066
:103F000000000000000000000000F03F8DEDB5A0B3
:103F1000F7C6B03EFA42C879FFFF03400000000038
:103F2000000004400000000000DCAE4083DBB5DC94
:103F3000E1796B3F666666666612714010B50400F3
:103F40000DD000290BD000F0E7FA10B1204600F0A8
:103F500001FB052004F8340F00206070E07510BDEF
:103F6000B5EEC00AF1EE10FA01DAB1EE400A704780
:103F700070B50C46050015D0A4B100F062FA002817
:103F80000FD095ED2C0A204684ED000A95ED2D0A00
:103F900084ED010A95ED2E0A84ED020AFEF736FD46
:103FA000012070BD002070BD70B504002DED028BA6
:103FB00084B005D094F8302094F84A00904204D29E
:103FC000002004B0BDEC028B70BD801AC1B201A804
:103FD000009002AB204600F053F90028F1D09DED8F
:103FE000020AF0EE000A94ED0A1A60EE200A072594
:103FF0004FF0FF36F4EEC10AF1EE10FA7ED3D4EDA5
:10400000010AB1EE001A60EE810A9FED4B1A20EE14
:10401000010A80EE808A94ED070AB8EE400ADFEDCF
:10402000470A474880EE202A18EE101A814277DDB1
:104030009DED011A11EE101A814271DD12EE101A77
:1040400081426DDD94F83210DFED3E2AF0EE620A17
:10405000D9B1012922D0DFED3C0A9FED3C3A88EE30
:10406000200A61EE201AC1EE030A00BF11EE901A79
:1040700084ED2C0A81421EDDB0EE401A21EE021AB8
:1040800081EE213A84ED2D3A17E09FED323A9FED13
:10409000300AC1EE031A28EE000AE7E7F6EE000A3E
:1040A0009FED2D0A61EE201AF4EE000A28EE000AB8
:1040B00061EE200ADAE7C4ED2D2A10EE901A814253
:1040C00008DDB0EE401A61EE200A80EE821A84ED1F
:1040D0002E1A01E0C4ED2E2A00F008FA70B194ED1A
:1040E0002D0A00F003FA48B194ED2E0A00F0FEF913
:1040F00020B194ED2C0AB5EEC00A00E010E0F1EE1C
:1041000010FA0DD394ED2D0AB5EEC00AF1EE10FAB7
:1041100006D394ED2E0AB5EEC00AF1EE10FA03D2E2
:1041200084F8355030464CE784ED2A8A9DED010A2B
:10413000012084ED2B0A44E7DB0F494000007A445C
:10414000BD37863500000000CDCC0C409A99C9409F
:104150006666E63E9A99993F9A99193F10B5040010
:1041600047D094ED000A00F0C1F9002841D094ED49
:10417000010A00F0BBF9E0B394ED020A00F0B6F9D1
:10418000B8B394ED030A00F0B1F990B394ED040ACA
:1041900000F0ACF968B394ED050A00F0A7F940B35C
:1041A00094ED060A00F0A2F918B394ED0A0A00F0A3
:1041B0009DF9F0B194ED0B0A00F098F9C8B194EDB7
:1041C000010AB5EEC00AF1EE10FA54D994ED020AD4
:1041D000B5EEC00AF1EE10FA4DD9D4ED040A94ED13
:1041E000030AF4EEC00AF1EE10FA44D994ED061A6F
:1041F00000E040E0D4ED050AB4EEE01AF1EE10FA6A
:1042000039D994ED000AB4EEE00AF1EE10FA32D991
:10421000B4EEC10AF1EE10FA2DDAE0690A282AD3C9
:10422000216A41B3606A30B3814224D994ED0A0A0D
:10423000B5EEC00AF1EE10FA1DD994ED0B0AB5EEF9
:10424000C00AF1EE10FA16D910EE100AB0F17E5F36
:1042500011DC94F83000C11E06290CD294F83110FC
:10426000814208D3082906D894F8320028B10128E1
:1042700003D0022801D0002010BD012010BD000095
:104280002DE9F0471F462DED048B14468846DDF8D6
:1042900030A0060052D087B35FEA0A004ED064B364
:1042A000DFED2E0A0020B0EE600A0DE008EB000101
:1042B00006EB8101401C91ED1A1AC0B271EE200A82
:1042C00091ED221A31EE000AA042EFD301EE104A1E
:1042D0002349B8EE411A80EE818A00EE904AF8EE4A
:1042E000600AC0EE208A18EE100A884226DD18EE19
:1042F000900A884222DD002527E01FE008EB050038
:1043000006EB800999ED1A0A30EE480AFFF728FEFD
:1043100080EE089A99ED220A30EE680AFFF720FE37
:10432000C0EE280A96ED0B0AB4EEC90AF1EE10FAB7
:1043300004D3B4EEE00AF1EE10FA04D20020BDEC92
:10434000048BBDE8F0876D1CEDB2A542D6D387ED96
:10435000008ACAED008A0120F1E700000000000099
:10436000BD37863570B50D462DED028BB0EE408A17
:1043700004002CD03421FCF790FA84ED008AB0EED2
:10438000000A84ED010A9FED130ADFED140A84EDA3
:10439000020A9FED110A124884ED030AC4ED040AD3
:1043A000143484EC020AB6EE000AC4E902500D4847
:1043B000206184ED050A9FED0C0A042084ED060AB5
:1043C0002077082060770220A0770120E077BDECFD
:1043D000028B70BDCDCC4C3E00000000000070424E
:1043E00040771B00E09304003333B33E012380F891
:1043F0003430026480ED170A80ED180A90ED140A3B
:1044000000F0D4BA022380F83430026480ED170A39
:1044100080ED180A90ED150A00F0C8BA10B5040036
:104420000DD084F83520062084F83400002084F86C
:104430004B00204600F08EF894F8340010BD0620A2
:1044400010BD10B5040030D094F83400042806D014
:1044500094ED2A0AB5EEC00AF1EE10FA25D994EDD2
:104460002C0A00F043F800B394ED2D0A00F03EF85A
:10447000D8B194ED2E0A00F039F8B0B194ED2C0AC1
:10448000B5EEC00AF1EE10FA0FDB94ED2D0AB5EE91
:10449000C00AF1EE10FA08DB94ED2E0AB5EEC00A60
:1044A000F1EE10FA01DB012010BD002010BD70B547
:1044B0000D46040011D0CC21FCF7EFF92846FFF798
:1044C0004DFE60B1342229462046FCF792F90020C7
:1044D00004F8340F6070012070BD002070BD06200C
:1044E00004F8340F02206070F7E70000B4EE400AD1
:1044F000F1EE10FA0AD110EE100A0649884205DAE8
:1045000010EE100A6FF40001884201D300207047BA
:1045100001207047FFFF7F7F002808D090F834000B
:10452000012805D0022803D0032801D000207047BD
:1045300001207047B4EEC10AF1EE10FA02DDB0EED0
:10454000410A7047B4EEE00AF1EE10FAF9D2B0EE8B
:10455000600A704770B504000D4618D0002D16D0C3
:1045600094ED2F0A084685ED000A94ED300A85ED9A
:10457000010A94ED310A85ED020AFEF747FA94ED3F
:10458000320A29462046BDE8704000F00FBA70BDDF
:104590002DE9F04799462DED028B1746B0EE408A83
:1045A0000D4604002AD00626DDB1FFF7D7FD4FF0F7
:1045B0000208D0B1B0EE480AFFF798FFD0B194EDF1
:1045C000050AB4EEC80AF1EE10FA06DA94ED060A0E
:1045D000B4EEC80AF1EE10FA15D804F8346F0420CE
:1045E0000BE004F8346F012007E084F8346084F8AD
:1045F000358003E004F8346F032060700020BDECC8
:10460000028BBDE8F08794EC020A94ED041A30EEB8
:10461000200AD4ED030AFFF78DFFF0EE408A94ECF8
:10462000020A94ED041A30EE600AD4ED030AFFF793
:1046300081FF78EEC00A324910EE900A8842D4DD3C
:10464000D5ED000A0026C4ED2F0AD5ED010A202180
:10465000C4ED300AD5ED020AC4ED310AD5ED060AE3
:10466000C4ED320A84F83690A763E0696664381AAC
:10467000C4E90F0784F8486084F8496084F84A6008
:104680000A2084F84B00D4ED000A04F16800C4ED60
:10469000130AC4ED148A84ED150AC4ED160A84EDDC
:1046A000178A84ED188A84ED198AFCF7F6F8202120
:1046B00004F18800FCF7F1F89FED120A284684ED1A
:1046C0002A0A84ED2B0A84ED2C0A84ED2D0A84ED50
:1046D0002E0A84F83560FEF799F994ED000A3A46FF
:1046E0002946B4EEC80A2046F1EE10FAB0EE480AA8
:1046F00002DBFFF77BFE01E0FFF784FE01207EE78F
:10470000BD3786350000000010B504002DED028B8A
:10471000B0EE608AF0EE408A13D0B0EE680AFFF780
:10472000E5FE70B1B0EE480AFFF7E0FE48B1F5EEE5
:10473000C08AF1EE10FA04D9B5EEC08AF1EE10FA93
:1047400003D80020BDEC028B10BD94F84A00082865
:1047500003D2411C84F84A100FE0012004EB8001D1
:10476000401C91ED1A0AC0B281ED190A91ED220A9E
:10477000082881ED210AF1D3072004EB8000C0ED69
:104780001A8A80ED228A204600F0F2F80120D9E74B
:104790002DE9F04115462DED028BB0EE408A88469A
:1047A000040016D00126B8F1000F0ED02046FFF706
:1047B000B3FE20B1E06BE169281A88420BD294F86D
:1047C0003400BDEC028BBDE8F081062004F8340F04
:1047D00066700620F5E7B0EE480AE563FFF786FE4F
:1047E00078B194ED050AB4EEC80AF1EE10FA06DAD3
:1047F00094ED060AB4EEC80AF1EE10FA03D80422CA
:1048000086E0032284E0A06B216A281A884201D93D
:1048100005227DE0206C616A281A884201D90622AF
:1048200076E0D4ED000A94ED020A30EE801A30EE04
:10483000C00AD4ED170AF4EEC80AF1EE10FA01DD51
:1048400084ED178AD4ED180AF4EEC80AF1EE10FAD6
:1048500001D284ED188A94F83400012804D002288B
:104860006BD003287BD17EE0B4EEC18AF1EE10FA62
:1048700075DB94F848000027E0B394F84900C8B30A
:1048800094ED190AD4ED170A606CDFED381A30EE9A
:10489000600AF6EE000A281A20EE200A00EE900ABE
:1048A0002046B8EE601AC1EE210AFFF72DFF10B3C3
:1048B00094F84A0094F83010884231D3032084F8E9
:1048C00034002046FFF770FB002816DD94F8330013
:1048D00018B141462046FFF74BFB94ED000A4146D4
:1048E000204600F063F8042004F8340F6421677058
:1048F000E17566E714E007220AE002DA94F8352051
:1049000006E094F84A0094F83110884208D308224F
:10491000BDEC028B41462046BDE8F041FFF77EBD6D
:10492000656484F8486084F849702A46B0EE480A05
:1049300041462046FFF766FD11E0B4EEC08AF1EE75
:1049400010FA0CD894ED180A2A4684ED190A84F856
:104950004960B0EE480A41462046FFF747FD204631
:1049600000F006F82BE70122D2E7000000007A44AD
:1049700000B5010017D091F83400042814D008467F
:10498000FFF7CAFD00280ED091F84A0091F83020B8
:1049900000EB80000001B0FBF2F00A305A2800D989
:1049A0005A2081F84B0000BD6420FAE770B50D462F
:1049B000040013D0002D11D094ED041AD4ED030A95
:1049C000FFF7B8FD84ED160A85ED060A00F03AF906
:1049D00094F83600BDE87040FDF780BC70BD2DE94D
:1049E000F0411F462DED028B1646B0EE408A0D4673
:1049F00004001ED0EDB14FF48C71FBF74EFF256023
:104A000084F8057184ED428A0020C4F80C6184F8B2
:104A1000040104F1D0003146B0EE480A0546FFF724
:104A2000A1FCBDEC028B2946201DBDE8F041FFF73B
:104A30003EBDBDEC028B0020BDE8F081002802D015
:104A4000012180F81411704710B5040012D02068BD
:104A500000280FD0201DFFF75FFD18B1201D216831
:104A6000FFF76CFA2068FDF7D1FF002084F81401ED
:104A700084F8040110BD70B515462DED028B0A4671
:104A8000B0EE408A040015D0216899B1B2B194F813
:104A90001401F0B1002684F8146194F805312A4617
:104AA000B0EE480A201DFFF773FD80B1012084F8A5
:104AB00004010EE00020BDEC028B70BD94F814518F
:104AC00004F58274FFF7C0FF25742078F3E784F8BB
:104AD000046194F80401012802D002282DD11AE0C3
:104AE0002A46B0EE480A201D2168FFF751FE04282F
:104AF00004D006280BD0052809D01EE02068FDF759
:104B000085FF0220C4F8105184F8040115E0204606
:104B1000FFF79AFF11E0D4F81001D4F80C11281A0D
:104B200088420AD3C4F8105194F80511206894ED16
:104B3000420AF0EE480AFDF777FF94F80401BAE75D
:104B4000704700002DE9F041114F054600244FF455
:104B500000684FF48066012231463846FEF7B9FA04
:104B6000280601D5012200E0002241463846FEF722
:104B7000B0FA6806050E002231463846FEF7A9FA5B
:104B8000FFF738F9641CE4B2082CE4D3BDE8F081E7
:104B9000001002407047FEF7A7BA000030B593B08E
:104BA00030216846FBF779FE14210CA8FBF775FE4F
:104BB0001E480025016841F080510160006800F046
:104BC000805011901A48016841F4804101600068EA
:104BD000022400F480401190012000900004019014
:104BE0008001CDE90640192008904FF4A870CDE966
:104BF000090404200B906846FEF7FCFB08B172B66E
:104C0000FEE70CA90F2081E831004FF4A0500F906F
:104C10004FF48050109005210CA8FEF7FFFA0028F1
:104C200001D072B6FEE713B030BD0000403802403C
:104C3000007000400248016841F470010160704753
:104C400088ED00E0DFED1C0A10B530EE201A2DEDE6
:104C5000028B9FED1A8AB5EEC01AF1EE10FA04D855
:104C6000B0EE480ABDEC028B10BDF7EE000A80EEF4
:104C7000810ADFED130A30EE600ADFED120A20EE42
:104C8000200A00F0A1FBF0EE400A9FED0F0A20EE93
:104C9000801AF0EE040A61EE200A31EE001A80EE6E
:104CA000810AF0EE480ABDEC028BB0EE041ABDE8B2
:104CB0001040FDF780BE00003393884300000000E1
:104CC0000FCF5B3B00E0764500401C460068094979
:104CD00082B088420CD10168C943C90608D4C168B2
:104CE000C90605D501684068009002B000F04AB8D6
:104CF00002B070470010014002488078002800D0C0
:104D0000012070475000002008B50F4A0168914209
:104D100019D1FEF73AFD0D4900208880C88008703F
:104D2000487080210A48FBF796FD8022084909480F
:104D3000FEF760FF07480068016841680091C1689C
:104D400041F01001C16008BD00100140500000207A
:104D5000AC0200209401002000680349884201D180
:104D600000F010B8704700000010014000680349CF
:104D7000884202D10249002088707047001001402B
:104D8000500000202DE9F0411648C06B002827D0C4
:104D900000684068144EC0F1800084B2B08884423C
:104DA0001ED0B088114FB588844205D80CE0785DDC
:104DB00000F01EF86D1CADB2A542F8D30FE0785D8F
:104DC00000F016F86D1CADB2802DF8D3002504E07C
:104DD000785D00F00DF86D1CADB2A542F8D3B4803B
:104DE000BDE8F0819401002050000020AC020020BA
:104DF00070B50D280ED0124C10490126637800259D
:104E0000E2880A2807D0002B04D13F2A12D2885406
:104E1000521CE28070BD52B14BB9207838B98D5424
:104E20000649521C01F14000FBF79EFC2670E5800C
:104E3000657070BD6670E58070BD00002C030020B9
:104E4000500000202DE9F04103004FF0000008D091
:104E500039B172B60E4C2278BAB140260D4D0022FF
:104E600005E00020BDE8F081521CB24202D2AF5CE6
:104E7000002FF9D1551C8D4207D806491846521CFF
:104E8000FBF772FC00202070012062B6EAE7000008
:104E9000500000206C030020124908B500208880D3
:104EA000C88008704870887080210F48FBF7D3FCD9
:104EB0000D4840218030FBF7CEFC0B484021C0302C
:104EC000FBF7C9FC802208490848FEF793FE074813
:104ED0000068016841680091C16841F01001C1603B
:104EE00008BD000050000020AC020020940100200A
:104EF0000FB470B5049A22B172B6104CA07820B1EC
:104F000062B6002070BC5DF814FB0120A07062B690
:104F100005AB4FF480710A48FBF798FA002500288A
:104F200007DDFF2805DC82B205490648FEF774FE5E
:104F300008B1A570E5E70120E4E70000500000207B
:104F4000AC0300209401002010B5806B0021C185C6
:104F5000FEF765FC10BD70B5846B2068406994F85D
:104F60004110C0F3C0100025212904D118B1E584F7
:104F7000204600F0B4F82068406994F84210C0F36D
:104F80008010222904D118B1E585204600F080F870
:104F9000606C40F0100060642046FEF740FC70BD7D
:104FA00010B50146806B096809684FF00002C90519
:104FB0002ED4C28501680C3151E8003F23F4807380
:104FC00041E80034002CF5D10168143151E8003F6C
:104FD00023F0010341E80034002CF5D101681431BD
:104FE00051E8003F23F0400341E80034002CF5D1A4
:104FF000202180F84210016B012909D101680C3190
:1050000051E8003F23F0100341E80034002CF5D1B3
:105010004263016B012902D0FEF7FAFD10BD818DBC
:10502000FEF7B2FB10BD10B5806B01214163016B2F
:10503000012902D0FEF7EEFD10BD818D4908FEF773
:10504000A3FB10BD10B50146806B09680968C9054E
:1050500016D40021C1840168143151E8002F22F0D8
:10506000800241E80023002BF5D101680C3151E8A2
:10507000002F42F0400241E80023002BF5D110BD83
:10508000FEF70CFE10BD10B5806BFEF709FE10BDDB
:1050900001680C3151E8002F22F4907241E800239E
:1050A000002BF5D10168143151E8002F22F00102E4
:1050B00041E80023002BF5D1016B012909D10168DA
:1050C0000C3151E8002F22F0100241E80023002BA0
:1050D000F5D1202180F8421000210163704701685A
:1050E0000C3151E8002F22F0C00241E80023002BD0
:1050F000F5D1202180F84110704708B590F8421092
:10510000222901D0022008BD82684FF480539A42C0
:1051100001D1016921B1816A9A421BD04AB10AE0EA
:105120000268816A5268C2F308020A80816A891C97
:1051300008E0026972B10268526802F07F020A70E8
:10514000816A491C8162C18D491E0904090CC1850F
:1051500003D01BE002685268F1E70168CA6822F0D8
:105160002002CA600168CA6822F48072CA600168BD
:105170004A6922F001024A61202180F84210002190
:105180004163026B012A03D0FEF742FD002008BDF7
:10519000016301680C3151E8002F22F0100241E850
:1051A0000023002BF5D101680A68D20602D50A68EF
:1051B00049680091818DFEF7E7FAE7E770B504468C
:1051C00000680169E26821F44051114301612169DD
:1051D000A068E26908436169114308432168CA680D
:1051E00049F20C639A430243CA6020684169A2698C
:1051F00021F440711143416125492068884202D061
:105200002449884202D1FEF7B3F801E0FEF7A0F886
:10521000E2690023192164253226B2F5004F626845
:105220001BD0A0FB0101930F9200FBF773F801461E
:10523000B0FBF5F06FF01802424301EB820106EB80
:105240000111B1FBF5F101F0F00202EB001001F0E9
:105250000F0108442168886070BDA0FB010192180D
:105260005B41FBF757F8B0FBF5F10B016FF018024B
:10527000514300EB810006EBC000B0FBF5F000F0FD
:10528000F80103EB410100F007000844E2E70000E9
:10529000001001400014014038B581620446828547
:1052A000002013466064222284F84220E56B1F4AE6
:1052B000EA63E56B1E4A2A64E56B1E4AEA64E26B08
:1052C00010650A462168E06B091DFDF7BBFD30B192
:1052D00010206064202084F84200012038BD20683E
:1052E000016840680090206948B120680C3050E89F
:1052F000001F41F4807140E80012002AF5D12068B7
:10530000143050E8001F41F0010140E80012002A6B
:10531000F5D12068143050E8001F41F0400140E80A
:105320000012002AF5D1002038BD0000A14F00086E
:1053300027500008574F000810B50448FFF7C6FC77
:10534000BDE810400148FEF76DBA0000940100204E
:10535000FEE703B401984100009850EAC12018BF4D
:1053600004204A0D18BF40F0010040F2FF72B2EB7A
:10537000515F08BF40F00200012808BF052002B0BD
:1053800070474100080218BF04200A0E18BF40F001
:1053900001004FF07F4232EA010108BF40F00200F5
:1053A000012808BF052070470907090E002804DB03
:1053B00000F1E02080F80014704700F00F0000F1C9
:1053C000E02080F8141D704710B510EE104A4FF021
:1053D00019406749002200EB44002DED028B884202
:1053E00057D8DFED640A14F0004F60EE200A14BFB6
:1053F000BEEE001AB6EE001A71EE200AFDEEE00ACB
:1054000010EE900A00EE900AF8EEE00A9FED5A1AAC
:1054100000EEC10A9FED591A00EEC10ADFED580AED
:105420009FED581A00EE201ADFED570A40EE010AF0
:105430009FED561A564B00F0030100EE201A21EEA4
:10544000000A7B4403EB8103D3ED000A514B7B44FC
:1054500003EB810393ED001A4F4B41EE000A7B44AE
:1054600003EB8101801091ED000A70EE800AD2BB3F
:1054700000EE100AB8EEC01ADFED481A9FED480A98
:10548000BDEC028B01EE210ABCEEC00A20EE200A20
:1054900010BD4FF0FF40A04322D04FF0CE40B0EB04
:1054A000440F82BFB7EE000ABDEC028B10BD3D4831
:1054B000B0EB440F28BF012293D20220FBF75CFA25
:1054C00014F0004F01BF9FED380A20EE000ABDEC3A
:1054D000028B10BDBDEC028BBDE8104000F0D6BAC7
:1054E00014F5000F00E007E014BF30EE000A9FED56
:1054F0002F0ABDEC028B10BD00EBD07359104FF09A
:105500007E5202EBC15100EE101AA0EB630002EBD9
:10551000C05060EE200A00EE100A20EE208A18EE3D
:10552000100A88B118EE100AB0F1FF4F15D018EE2E
:10553000100AFFF726FF042808BF00F0A7FAB0EE14
:10554000480ABDEC028B10BD0220FBF715FABDEC3A
:10555000028BBDE8104000F099BA0220FBF70CFA6C
:105560009FED110ABDEC028B20EE000A10BD000079
:105570000000501E3BAAB8400070313EF4FD0537D4
:1055800012BB2A3D12BB2A3EFFFFFF3EFFFF7F3FBB
:10559000C2140000C6140000961400000000004B66
:1055A00000007E4E0000A08500000070000000009A
:1055B00070B5DD4B00242DED020B2DED108BDDE9D8
:1055C0001010984205DA20F000429A4201D809D121
:1055D00041B19DED100B53EC102B51EC100B00F072
:1055E000EDFB1CE0B0F5801F2EDA11439FEDD08B50
:1055F0000BD0002819DA0120FBF7BEF953EC182B69
:1056000051EC180B00F08EFC09E00220FBF7B4F916
:1056100053EC182B9FEDC80B51EC100BF2E7BDECCF
:10562000108B02B041EC100B70BD6FF035049FED94
:10563000C40B53EC102B9DED100B51EC100B00F034
:1056400099FECDE91001084604EB2051C0F3130484
:10565000BD48A1F2FF31204400F4801080F07F6249
:1056600082F04052224301EB20559FEDB90B11927D
:1056700053EC102B9DED100B51EC100B00F0BAFF0A
:1056800041EC180BA01CC0F313009FEDB3DB9FEDA2
:10569000B4EBB54E7E44032867D296ED000B51EC77
:1056A000180B53EC102B00F095FD1DD1002D01BF00
:1056B00096ED000BBDEC108B02B070BD284600F0DB
:1056C000F2FD41EC180B53EC1D2B00F053FE41ECA6
:1056D000190B53EC1E2B51EC180B00F04BFE53EC46
:1056E000192B00F06BFB9AE79FEDA10B51EC180B07
:1056F00053EC102B00F03EFE9FED9F1B53EC112B43
:1057000000F06CFF41EC190B53EC182B51EC180B0B
:1057100000F030FE53EC192B00F02CFE41EC190B7D
:10572000002D04BF53EC192B51EC180B7CD02846EC
:1057300000F0B9FD41EC1A0B53EC1D2B00F01AFEE2
:1057400053EC192B00F04AFF53EC182B00F052FFDA
:1057500041EC180B53EC1E2B51EC1A0B00F00AFE17
:1057600053EC182B00F046FF59E79FED850B51ECE9
:10577000180B53EC102B00F021FB41EC100B51ECFB
:10578000180B53EC102B00F0CDFB41EC190B284605
:1057900000F089FD41EC1B0B53EC192B51EC190B5C
:1057A00000F0E8FD41EC1A0B774853EC1A2B261851
:1057B00051EC1A0B00F0DEFD41EC1F0B7348C4F1F5
:1057C000510404F5D724B0EE4F0AF0EE6F0A03211E
:1057D000784400F0DFF853EC1F2B51EC100B00F075
:1057E000C9FD41EC1C0B6A48B0EE4F0AF0EE6F0A9F
:1057F0000421784400F0CEF853EC1A2B51EC100B36
:1058000000F0B8FD344353EC1C2B00F0D7FA41EC08
:105810001C0B002C4EDD9FED580B51EC180B53EC7C
:10582000102B00F0A7FD00E02EE053EC182B00F049
:10583000A1FD41EC1A0B55B353EC1D2B51EC1B0B86
:1058400000F098FD41EC1D0B53EC1C2B51EC1A0B96
:1058500000F0B4FA53EC192B00F08CFD53EC1D2B27
:1058600000F0ACFA53EC1A2B00F0B8FE53EC182BF6
:1058700000F0C0FE41EC180B53EC1E2B51EC1B0B3F
:1058800000F078FD53EC182B00F0B4FEC7E653ECA3
:105890001C2B51EC1A0B00F091FA53EC192B00F071
:1058A00069FD53EC1A2B00F099FE53EC182B00F015
:1058B00095FEB4E635B353EC1D2B51EC1B0B00F0F9
:1058C00059FD41EC1A0B53EC1C2B51EC180B00F05A
:1058D00091FE53EC192B00F04DFD53EC1A2B00F008
:1058E00089FE53EC182B00F085FE41EC180B53ECAD
:1058F0001E2B51EC1B0B00F03DFD53EC182B00F060
:1059000079FE8CE653EC1C2B51EC180B00F072FE68
:1059100053EC192B00F02EFD53EC182B00F05EFE1B
:105920007DE60000000000000000F07F00000000A5
:105930000000000000000000000000000000F0BFB8
:105940000000000000005043645F090000000000F8
:10595000000000000000F03F763C7935EF39EA3D69
:105960000000E0FE422EE63FF812000000000000BA
:10597000555555555555D53F000000000000E03FF6
:10598000000000000000004086EBF9FF5411000009
:105990004A11000070B504462DED028B4D1E00EB40
:1059A000C500B0EE408AF0EE608A90ED000B35F055
:1059B000060017D053EC182B51EC100B00F0DAFC5A
:1059C00041EC100B6D1E04EBC50090ED001B51EC7B
:1059D000100B53EC112B00F0F1F941EC100B35F0EA
:1059E0000600E7D1022D36D0042D1CD0062D1CBF99
:1059F000BDEC028B70BD53EC182B51EC100B00F07A
:105A0000B9FC94ED0A1B53EC112B00F0D7F953ECC1
:105A1000182B00F0AFFC94ED081B53EC112B00F099
:105A2000CDF941EC100B53EC182B51EC100B00F09E
:105A3000A1FC94ED061B53EC112B00F0BFF953ECC5
:105A4000182B00F097FC94ED040B53EC102B00F096
:105A5000B5F941EC100B53EC182B51EC100B00F086
:105A600089FC94ED021B53EC112B00F0A7F953ECC9
:105A7000182B00F07FFC94ED001B53EC112B00F071
:105A80009DF9BDEC028B41EC100B70BD9FED020A3D
:105A900020EE000A704700000000001030380A288D
:105AA00001D2012070470020704708B500EB40008C
:105AB000C0000090411E009101D30846FAE708BDDE
:105AC0002DED0A8B8AB0FDF717FBFFF767F8FEF79D
:105AD00007F9FEF7E7F8FEF771F9FFF7DDF9FCF7D4
